:020000040800F2
:10000000180B0020BD010008C5010008B70B00084F
:1000100000000000000000000000000000000000E0
:10002000000000000000000000000000C9010008FE
:100030000000000000000000CB010008CD01000816
:10004000CF010008CF010008CF010008CF01000850
:10005000CF010008CF010008CF010008CF01000840
:10006000CF010008CF010008CF010008CF01000830
:10007000CF010008CF010008B11B0008CF01000824
:10008000CF010008CF01000800000000E1180008BF
:100090001D1A0008CF010008CF010008CF01000899
:1000A000CF010008CF010008CF0100083D20000863
:1000B000CF01000800000000CF01000800F002F8A6
:1000C00000F050F80CA030C8083824182D18A246AB
:1000D000671EAB4654465D46AC4201D100F042F883
:1000E0007E460F3E0FCCB6460126334200D0FB1AA7
:1000F000A246AB4633431847B0910000D0910000B0
:10010000103A02D378C878C1FAD8520701D330C860
:1001100030C101D504680C60704700000023002442
:1001200000250026103A01D378C1FBD8520700D32E
:1001300030C100D50B60704710B5642902D100F0C2
:1001400025F910BD752902D100F020F910BD7829DC
:1001500002D100F051F910BD002010BD1FB51FBD28
:1001600010B510BD00F042FC1146FFF7F7FF04F098
:1001700009FC00F05AFC03B4FFF7F2FF03BC00F0E7
:100180008FFC000070B505460C46164602E00FCC09
:100190000FC5103E102EFAD2082E02D303CC03C591
:1001A000083E042E07D301CC01C5361F03E0217899
:1001B0002970641C6D1C761EF9D270BD07488047FB
:1001C00007480047FEE7FEE7FEE7FEE7FEE7FEE73B
:1001D00004480549034A054B7047000049170008C9
:1001E000BD00000818080020180B00201808002087
:1001F00010B5202A04DB0146203A9140002010BDB2
:10020000914020239C1A0346E3401943904010BDBF
:10021000FEB5054610460C46184373D0AE468C46D4
:100220000020AD1A01469C4167D366460027012491
:100230003D46B61A9D4102D313463A4621246546EF
:1002400076462F04360C3E432D0CB61A9D4104D33E
:10025000150C1B042B4312041034654676462F06FA
:10026000360A3E432D0AB61A9D4104D3150E1B02D1
:100270002B4312020834654676462F0736093E4363
:100280002D09B61A9D4104D3150F1B012B431201F2
:10029000241D65467646AF07B6083E43AD08B61A3C
:1002A0009D4104D3950F9B002B439200A41C6546EF
:1002B0007646EF0776083E436D08B61A9D411AD37D
:1002C00092185B41641C16E0001876466546494169
:1002D000B71A9D410191009009D36046B11A984127
:1002E0008E468446009801990025401C6941DD072F
:1002F00052082A435B08641EE6D57246634603B083
:10030000F0BDFFE700200146C046C0462A4623460E
:10031000F5E700000FB41CB5074B06AA7B446946FD
:100320000090059800F0CBFA0020694600F0DAFA58
:100330001CBC08BC04B01847C505000070B50446D5
:1003400085690068C10601D5302600E02026C00777
:1003500007D070BD62683046A1689047206A401C93
:1003600020626D1EF6D570BD70B5044685690078B3
:10037000C00707D170BD6268A16820209047206A3D
:10038000401C20626D1EF6D570BD0000F7B500253B
:1003900075291068009914A611D0C046C0460028DF
:1003A00002DA404211A608E0009909688A0701D5DF
:1003B0000FA602E0490704D50EA6012501E0C046BC
:1003C000C046009F0024243704E000F090FA30314A
:1003D0003955641C0028F8D12B4632462146009836
:1003E00000F00FFAFEBD0000000000002D0000002C
:1003F0002B0000002000000070B504460D46214689
:100400001068C046C0462188090502D50F4A7A44C3
:1004100002E00E4A7A440E3223460021243305E0DE
:1004200006070009360F965D5E54491C0028F7D177
:1004300020780023000705D5702D03D0002901D0B6
:1004400002231132204600F0DCF970BD5C8E000002
:10045000F3B50446002081B020622046E168884759
:1004600000287DD0252802D06268A16883E0454F2E
:1004700000257F442046E16888472028064608DB9F
:10048000312E06D2B81920380078002801D0054353
:10049000F0E7A80701D5042085430020E061074666
:1004A000A0612A2E0AD0304601F0C7FF002827D0CD
:1004B000B8000019303E0090866119E00298BA0039
:1004C000121902C8916102902046E1688847012F05
:1004D000064617D1E06900281FDA202085431CE07A
:1004E00000980A2180694843009980193038886152
:1004F0002046E1688847064601F09FFF0028EFD1BB
:10050000012F0AD02E2E08D12046E16888470646E2
:10051000202005437F1C022FC3DBA069002803DADB
:100520004042A06101200543E80701D01020854327
:10053000002E24D030464138192803D80120C002AB
:1005400005432036204625603146029A1546FFF7BE
:10055000F3FD00280CD0012807D0ED1DE80800E0CD
:100560000DE0C0000830029077E72D1D029574E77A
:1005700062683046A1689047206A401C6CE7206A98
:10058000FEBD0000208E0000F8B5042A2CD383079E
:1005900012D00B78491C0370401C521E83070BD0ED
:1005A0000B78491C0370401C521E830704D00B7843
:1005B000491C0370401C521E8B079B0F05D0C91AA3
:1005C000DF002023DE1B08C90AE0FFF7DBFDF8BDD2
:1005D0001D4608C9FD401C46B4402C4310C0121FE4
:1005E000042AF5D2F308C91A521EF0D40B78491C1C
:1005F0000370401C521EEAD40B78491C0370401C47
:10060000012AE4D409780170F8BD01E004C0091F93
:100610000429FBD28B0701D50280801CC90700D0BA
:100620000270704700290BD0C30702D00270401C33
:10063000491E022904D3830702D50280801C891E2B
:10064000E3E70022EEE70022DFE7002203098B4206
:100650002CD3030A8B4211D300239C464EE0034661
:100660000B433CD4002243088B4231D303098B4215
:100670001CD3030A8B4201D394463FE0C3098B424B
:1006800001D3CB01C01A524183098B4201D38B01A4
:10069000C01A524143098B4201D34B01C01A524147
:1006A00003098B4201D30B01C01A5241C3088B428C
:1006B00001D3CB00C01A524183088B4201D38B0077
:1006C000C01A524143088B4201D34B00C01A524119
:1006D000411A00D201465241104670475DE0CA0FF0
:1006E00000D04942031000D34042534000229C46B0
:1006F00003098B422DD3030A8B4212D3FC228901BA
:1007000012BA030A8B420CD3890192118B4208D38F
:10071000890192118B4204D389013AD0921100E0F1
:100720008909C3098B4201D3CB01C01A5241830905
:100730008B4201D38B01C01A524143098B4201D332
:100740004B01C01A524103098B4201D30B01C01A5D
:100750005241C3088B4201D3CB00C01A52418308D7
:100760008B4201D38B00C01A5241D9D243088B422D
:1007700001D34B00C01A5241411A00D201466346D0
:1007800052415B10104601D34042002B00D5494234
:10079000704763465B1000D3404201B50020C0465D
:1007A000C04602BD7047704770471F22030C02D13C
:1007B0000F22000402D0030E03D004E00020014603
:1007C00070470002083A030F01D10001121F830F86
:1007D00001D18000921E002801DB4000521E12054C
:1007E00051184205C012411810467047C10FC90781
:1007F00000D04042012292071143D6E70121890728
:10080000D3E7FFB504460D4681B02430009021683F
:10081000880604D51022E0699143216000E00120A0
:10082000A84201DD471B00E000270498A1697A195E
:100830001018081AA0612078C00602D42046FFF7DD
:100840007DFD002608E003986268A168805D9047FE
:10085000206A401C761C206204988642F3DB2078D4
:10086000C0060AD52046FFF769FD06E06268A16868
:1008700030209047206A401C206238467F1E0028A6
:10088000F4DC07E000986268A168405D9047206A48
:10089000401C206228466D1E0028F3DC2046FFF72E
:1008A00063FD2078000602D5022005B0F0BD0120CE
:1008B000FBE7000001694A1C02610878704700B537
:1008C0008FB002910021059105490193794403916C
:1008D000114604906846FFF7BBFD0FB000BD000055
:1008E000E5FFFFFF0A681070521C0A60704701465E
:1008F0008008081A02091018020A1018020C1018B1
:10090000C008820012185200891A01E0401C0A39FE
:100910000A29FBD270470000F8B5224C4E00069D14
:10092000A6420AD8A64201D1002806D15E00A642FE
:1009300003D8A6420AD1002A08D00D242404254257
:100940002CD02946002000F02FF8F8BD0C461C439F
:100950000CD4994202D0EFF30080F8BD904202D04F
:10096000EFF30080F8BDEFF30080F8BD0924240701
:10097000E5008B4206D0EFF30080A043591A06D25F
:10098000284304E0101A05D3EFF30080A04380F35E
:100990000088F8BDEFF30080A043F1E7009500F078
:1009A0001BF8F8BD0000E0FFC80212D54803400F55
:1009B000002804D0C803C043012188407047EFF3EA
:1009C00000800001000903210907084380F3008823
:1009D000704700207047000010B500200249029ABD
:1009E00000F02BF810BD00000000F87F754600F005
:1009F00053F8AE46050069465346C008C000854618
:100A000018B020B5FFF7E4FB60BC00274908B646E4
:100A10000026C0C5C0C5C0C5C0C5C0C5C0C5C0C50D
:100A2000C0C5403D49008D46704710B50446C046DC
:100A3000C0462046FFF79FFB10BD10B50C461107BE
:100A4000090F092904D00A290AD008290CD104E089
:100A500011460820FFF7A8FF06E0510606D501E081
:100A6000510601D50120C007214610BDD10607D58A
:100A700001010909CC084907000E0006044309E0FA
:100A8000410F20024907000A0143200E00061D22E3
:100A9000D14101430846E7E700487047B807002006
:100AA00001491820ABBEFEE7260002007047F0B5F2
:100AB0000A4600210023002400BF3DE001258D40AF
:100AC0002B4615681D402C469C4234D11579012DCA
:100AD00002D01579022D16D185684F000326BE403D
:100AE000B543856055794E00B540866835438560CD
:100AF000858801268E40B5438580858896798E400D
:100B0000B6B23543858005684F000326BE40B54325
:100B1000056015794E00B540066835430560C56827
:100B20004F000326BE40B543C560D5794E00B540A1
:100B3000C6683543C560491C1029BFD3F0BDF0B568
:100B4000002300244D07EE0E1546B5402B46CD1070
:100B5000AE0005462035AD594E07F70E0F26BE40B4
:100B6000B543CE10B60007462037BD51CD10AE00BC
:100B70003D46AD591D432C46CD10AD003E46745147
:100B8000F0BD02460020138A0B40002B01D001204B
:100B900000E00020704702460020938A0B40002BA3
:100BA00001D0012000E000207047002A01D08161BF
:100BB00000E0018570477047F8B50546002D00D16B
:100BC00000E0FF200746002419E00021204600F045
:100BD000A1F9002605E03946012000F059F9701C02
:100BE000C6B2102EF7DB002605E03946012000F0E2
:100BF0004FF9701CC6B2102EF7DB601CC4B2202C5B
:100C0000E3DBF8BD70B5002425E00021204600F0AC
:100C100081F900250AE02946204600F079F80646C9
:100C20003146012000F034F9681CC5B2102DF2DB0A
:100C300000250CE021462031C8B2294600F068F8B2
:100C400006463146012000F023F9681CC5B2102D7C
:100C5000F0DB601CC4B2202CD7DB70BDF8B50446B5
:100C6000E006050E14E00021284600F053F90026A6
:100C70000AE03146284600F04BF807463946012085
:100C800000F006F9701CC6B2102EF2DB681CC5B26B
:100C9000601CC000A842E6DCF8BD000010B50121D0
:100CA00089021548FFF7CDFC002014490880002474
:100CB0001EE0134A1268944201D112A200E012A26F
:100CC00010460E4AD1688847132262430F4BD01852
:100CD0000A4AD16888472046E10F0918491049009F
:100CE000611A04D100BF0548C16807A08847641C89
:100CF000052CDED310BD00004C0100200C000020AC
:100D0000280000203E00000020000000808C000829
:100D1000F0B502460025D010C301C800C01883B248
:100D20001046D617760F3618F610F600961BF4B25A
:100D30000120A040C4B200200DE01E18084FBE5D87
:100D40002640002E05D00726371A0126BE402E4326
:100D5000F5B2461CF0B20828EFDB2846F0BD0000D3
:100D60004C01002010B51E4801F0FCFC012080035E
:100D70001C4908810A2001F0F5FC01208003194973
:100D8000203988613021002000F082F86E2001F0C7
:100D9000E9FC3021002000F07BF82F2001F0E2FC7C
:100DA0000C21002000F074F86E2001F0DBFC012122
:100DB000002000F06DF80C4801F0D4FC0621002062
:100DC00000F066F83421002000F062F8362100209F
:100DD00000F05EF83221002000F05AF810BD00004B
:100DE000409C0000200400481A27000000B587B08E
:100DF0000121880400F09EFA05204003059002219D
:100E0000684601760321417600218176C17605A9E5
:100E10001D48FFF74CFE05200003059001216846A0
:100E2000017605A91848FFF742FE00220D21164859
:100E3000FFF785FE00220F211348FFF780FE0121F6
:100E4000880300F087FA012001F08CFC002168463D
:100E50000180FF21053141800721090281800221A3
:100E6000C180012101814902418100218181C1812B
:100E7000072101826946054800F0C8FB01210348AB
:100E800000F0ACFB07B000BD000400480038004093
:100E900070B505460C46012000031C49886100BF5F
:100EA00002211B4800F0A8FB0028F9D06800F822B6
:100EB0001043C1B2164800F0D5FB00BF0221144810
:100EC00000F09AFB0028F9D0F0202040014610489D
:100ED00000F0C8FB00BF02210D4800F08DFB002888
:100EE000F9D02007010E0A4800F0BCFB00BF8021AA
:100EF000074800F081FB0028F9D1012000030349D5
:100F000020310881482001F02DFC70BD000400480C
:100F10000038004070B504460D4636210020FFF72A
:100F2000B7FFA006800E8022104301460020FFF785
:100F3000AFFF2807000F8022104301460020FFF773
:100F4000A7FF32210020FFF7A3FF70BDCA011218CE
:100F5000014B1A80704700000C0000205348816943
:100F600001208847524801F0FDFB5048816900206C
:100F70008847FFF793FE4D490869804794E002F0E7
:100F800001FF022003F09EFC002814D049480068AD
:100F900001F0E8FB48480068042801D0012000E087
:100FA000002045490968401843490860FFF776FE6C
:100FB0003E4908698047082003F084FC002814D0CB
:100FC0003C48006801F0CEFB3B480068002801D097
:100FD000012000E0002038490968081A36490860F5
:100FE000FFF75CFE314908698047042003F06AFC82
:100FF000002814D02F48006801F0B4FB2E48006888
:10100000022801DA002000E002202B490968081AB2
:1010100029490860FFF742FE2449086980471020EB
:1010200003F050FC002814D02248006801F09AFB1D
:1010300021480068032801D3002000E002201E4957
:10104000096840181C490860FFF728FE174908691D
:101050008047202003F036FC002825D0174801F0F7
:1010600081FB15480068030001F0D9F90504070A5F
:101070000D14170006F07AFD10E006F0EFFD0DE00C
:1010800006F07EFF0AE0094881690020884706F0E3
:1010900037FC03E003F0B2F900E000BF00BFFFF748
:1010A000FDFD02490869804769E700000C00002047
:1010B00020A107000400002028000020801A06005C
:1010C00070B5054600240BE0A1B2284600F046F8B2
:1010D000064600F009F8285DC02800D3641C641C93
:1010E000285D0028F0D170BD10B501461748008872
:1010F000174A904202D90020144A10801348007801
:101100004006400E8022101A06280AD20F48008896
:101110000E4A12785206520E80239A1A80180B4AF1
:10112000108000200AE006224A431218094B9A5CFC
:10113000064B1B881B18084CE254401C0628F2DBA7
:1011400002480088801D014A108010BD0C0000205C
:10115000FA030000B48800084C01002010B50246D4
:101160000B46D05CC02804D2D15C0846203880B23F
:1011700010BDD05C01025C1C145D2143104881420B
:1011800007DA0F48FF38814203DD0E48081A80B2A3
:10119000EEE70C485030814201D19F20E8E7084833
:1011A0001130814201D1A020E2E70748814201D1FC
:1011B000A120DDE702488F38081A80B2D8E7000086
:1011C00080D1000031D00000B0C20000F1B583B082
:1011D0004F480088C009401CC000401EC4B24C48A3
:1011E00000784006060F00200090029088E04848F2
:1011F00000884849884202D900204549088044486F
:1012000000784006400E8021081A06280AD240487D
:1012100000883F4909784906490E8022511A401832
:101220003B490880029881B20398FFF797FF00902E
:10123000002001905EE000254BE006210098484325
:10124000019940183449085C2841C007C00F0028A4
:101250001FD02046E217520F1218D210D201F3000D
:10126000D21852192D4B9A5C2146E3175B0F5B187D
:10127000DB10DB00E71A0123BB401A43E3175B0FC7
:101280001B18DB10DB01F700DB195B19234FFA5445
:101290001EE02046E217520F1218D210D201F300BE
:1012A000D21852191D4B9A5C2146E3175B0F5B184D
:1012B000DB10DB00E71A0123BB409A43E3175B0F07
:1012C0001B18DB10DB01F700DB195B19134FFA5415
:1012D0006D1C082DB1DB032C07D10D480088C00917
:1012E000401CC000401EC4B2761C601EC4B20198EF
:1012F000401C0190019806289DDB0298401C02903A
:1013000002990398405C002800D070E7FFBD000000
:101310000C000020FA030000B48800084C010020F3
:10132000C206D20E01219140014A116070470000AF
:1013300000E100E0002905D0054A52690243044B50
:101340005A6104E0024A52698243014B5A61704774
:1013500000100240002905D0054AD2690243044B1F
:10136000DA6104E0024AD2698243014BDA617047D4
:1013700000100240002905D0054A92690243044B3F
:101380009A6104E0024A92698243014B9A61704774
:1013900000100240FEB50446002500260020029001
:1013A000019000900027864840680C2108400546BF
:1013B000002D06D0042D07D0082D08D00C2D2CD1DF
:1013C00028E0804820602BE07E48206028E07C48B0
:1013D00040680F2189040840064679484068032187
:1013E000C90308400290B00C861C0298002803D163
:1013F0007548374647430BE07148C06A0007000F45
:10140000401C01906F480199FFF71FF97043074690
:10141000276005E06D48206002E06A48206000BF58
:1014200000BF67484068F021084005462D0968481C
:10143000405D009020680099C84060606048406846
:1014400007210902084005462D0A6148405D0090C9
:1014500061680098C140A1605948006BFF210131CB
:101460000840884202D05B48E0600DE05448406884
:10147000012189030840884203D0A0684008E06049
:1014800002E0A0688008E0604D48006B4021084001
:10149000402802D05048206102E00120C0032061B2
:1014A0004748006B10210840102802D04548606171
:1014B00001E0206860614248006B8007800F0028CF
:1014C00002D1A068A06119E03D48006B8007800F41
:1014D000012802D12068A06110E03948006B800724
:1014E000800F022802D18003A06107E03448006B1E
:1014F0008007800F032801D13248A0613048006B7B
:10150000032109040840002802D1A068E06120E01E
:101510002B48006B0321090408400121090488427B
:1015200002D12068E06114E02548006B0321090422
:10153000084001214904884202D18010E06108E09E
:101540001F48006B032109040840884201D11D484F
:10155000E0611B48006B032189040840002802D188
:10156000A068206220E01648006B0321890408402F
:1015700001218904884202D12068206214E01048C9
:10158000006B0321890408400121C904884202D16B
:101590000011206208E00A48006B0321890408401A
:1015A000884201D1074820620548006B802108402D
:1015B000802802D00548606200E06762FEBD00003E
:1015C0000010024000127A0000093D00006CDC02AD
:1015D000FE000020809FD50012800000002904D06A
:1015E000028840231A43028003E00288014B1A401C
:1015F00002807047BFFF00000246002013890B40A5
:10160000002B01D0012000E00020704710B500221F
:101610000288C1239B011A400B88CC892343CC88C4
:1016200023430C8923434C8923438C8923431A4346
:1016300002808288084B1A408B881A4382800B8A6A
:1016400003820288054B1A404B881A430280838B21
:10165000034C2340838310BDFFF00000FBFF00001C
:10166000FFF70000002202460C32117070470000A4
:101670000CB5002001900090314800680121090458
:1016800008432F49086000BF2D4800680121490424
:10169000084000900198401C01900098002804D157
:1016A0000521090301988842EED1254800680121EF
:1016B00049040840002802D00120009001E00020E9
:1016C00000900098012839D111201E4908601C485B
:1016D00040681B49486008464068486008464068C2
:1016E0007F21C90388431649486008464068112194
:1016F00009040843124948600846006801210906A8
:1017000008430F49086000BF0D48006801214906E1
:1017100008400028F8D00A4840688008800008493E
:10172000486008464068022108430549486000BFF8
:10173000034840680C2108400828F9D10CBD00007E
:10174000001002400020024010B51B480068012133
:101750000843194908600846406818490840164976
:101760004860084600681649084013490860084662
:1017700000680121890488430F49086008464068D1
:101780003F21090488430C4948600846C06A0009A3
:101790000001C8620846006BFF21543188430649A6
:1017A00008630846406B400840004863002088609A
:1017B000FFF75EFF10BD0000001002400CB8FFF8FC
:1017C000FFFFF6FEF0B50C4600210025068C0A4FFF
:1017D0003E400684018B058C074EF23E31401E05CB
:1017E000360C16433143044E093E3540012626434C
:1017F000354301830584F0BDFEFF0000F8B50C46BB
:101800000021002500260096068C0D4F3E400684E0
:10181000018B058C2605360C00960A4E31401E07BA
:10182000360C31431606360C3143054E903E35409A
:101830001027009E3E43354301830584F8BD000018
:10184000EFFF0000FF0C0000F8B50C46002100255A
:1018500000260096068C0C4F3E400684818B058C3A
:101860002606360C0096084E0D3631401E05360C05
:1018700016433143054E3540FF270137009E3E4356
:10188000354381830584F8BDFFFE0000FFF50000AD
:10189000F8B50C460021002500260096068C0D4F59
:1018A0003E400684818B058C2607360C00960A4E36
:1018B00031401606360C31431E07360C3143074EB5
:1018C000354001273F03009E3E4335438183058415
:1018D000F8BD0000FFEF0000FF0C0000FF5F0000FC
:1018E00010B50121494800F004FA012837D101213F
:1018F000464800F0EAF94648807A012866D1444813
:10190000C088002862D0424800894149C98888427D
:1019100026DA3F4A12693E4B1B89D15C3C4AD268A9
:101920003B4B1B895B00D05A06F0ACF83848007876
:10193000002801D10C2000E0082001460122900778
:1019400000F0B4F90121880700F0C2F9002001215C
:10195000890748622E480089401C2D49088153E0C0
:1019600000202B49088108464078012804D12949E4
:10197000002006F087F847E0002025498872012101
:101980008907486222480078002801D10C2000E035
:101990000820014600220120800700F087F900217D
:1019A0000120800700F094F900BF00201749486229
:1019B0007D21C90018480068FEF747FE401E134904
:1019C0002031088132201149C8621DE07D21C90003
:1019D00011480068FEF739FE401E0C492031098984
:1019E000884211D000BF0020084948627D21C9000B
:1019F00009480068FEF729FE401E0449203108818D
:101A000032200249C86200BF10BD00000020004023
:101A100098070020FFFF00001001002070B5012191
:101A20005E4800F066F9012835D101215B4800F0DD
:101A30004CF95B48407800282ED1594800780121A4
:101A400048405749087001204870564800780128DE
:101A500008D15448007C002804D053494F4800F076
:101A600081FA07E04F4840884C4AD26A811A4B48B5
:101A700000F078FA4B484278521E01240025204697
:101A80002946FEF7B5FB464AD1609060002204214A
:101A9000464800F00BF97FE042480078012811D158
:101AA0004048007C00280DD000213C4800F010F98F
:101AB000002204213D4800F0F9F80020374948622F
:101AC0003749087436488168C06800235940584037
:101AD000014341D03248007801282CD130480078A9
:101AE000012148402E4908702E488268C0680C4683
:101AF000A368E4681A40204000246240604002432A
:101B000001D0032000E00120264A9288014651437B
:101B1000224800F027FA22498868C968CA074008A5
:101B2000104349081E4AD1609060002204211F48DA
:101B300000F0BCF830E01B488188184800F012FA29
:101B400017480078012148401549087001220421F6
:101B5000164800F0ABF81FE01148007800280DD1BE
:101B600001200F4908700F4881880C4800F0FAF9ED
:101B7000012204210D4800F099F80DE000210748EA
:101B800000F0A6F800220421084800F08FF8002099
:101B9000024948620249087470BD000000400140DB
:101BA0008007002058070020CA08000000040040F9
:101BB00010B500240221374800F09BF8012868D1B5
:101BC0000221344800F081F8334841880078401EF3
:101BD0004006400E81425CD030480078012858D140
:101BE0002C4800F083F884B22D490988601A002837
:101BF00001DB014600E041422A4A914247DA2A4885
:101C00000078002826D02448807823490978401A93
:101C10004006400E24494978234A9279891A88421D
:101C200018D800BF1E490988601A002801DB014648
:101C300000E041428AB21849897849060B0E1649DC
:101C4000091DCA52081F8078401C4006400E091F1B
:101C500048801CE014480078002818D100BF1049C3
:101C60000988601A002801DB014600E041428AB27F
:101C70000949897849060B0E0749091DCA52081FF0
:101C80008078401C4006400E091F488000BF044871
:101C9000048010BD002C01405006002033000020BD
:101CA00034000020AA0500005807002030B50023AA
:101CB00001248C40A3B2048C9C430484048C1546FC
:101CC0008D40ADB22C43048430BDCA4302827047BC
:101CD000002904D0028801231A43028003E002880D
:101CE000014B1A4002807047FEFF00000146486B1E
:101CF000704730B50246002000230024158A0D40AD
:101D00002B4695890D402C46002B03D0002C01D08A
:101D1000012000E0002030BD70B505460C4620884B
:101D200000280AD12389A28861882846FFF74AFD46
:101D3000E188284600F018F925E0208804280AD117
:101D40002389A28861882846FFF758FDE188284644
:101D500000F014F917E0208808280AD12389A28806
:101D600061882846FFF770FDE188284600F012F9E7
:101D700009E02389A28861882846FFF789FDE18868
:101D8000284600F011F970BD002A03D083890B4367
:101D9000838102E083898B438381704770B500247F
:101DA00000220023058C214E35400584028C838857
:101DB000048B1F4D2C401F4D2C400D782D062D0CF3
:101DC0002C431A4D103D2A408D892D052D0C2A4398
:101DD0004D882D052D0C2A43174DA84202D0174DD2
:101DE000A8421CD1164D2B400D8AAD042D0C2B435F
:101DF000114DA84213D10D4D703D2A40CD892D05BE
:101E00002D0C2A43094D303D2A408D882D052D0C7F
:101E10002A430C4D2B404D8AAD042D0C2B4383805F
:101E200004838D688563028470BD0000EFFF0000AD
:101E3000FF8F0000FFFC0000002C0140004001402B
:101E4000FFFB0000FFF7000070B500240022002314
:101E5000058C1C4E35400584028C8388848B194D7B
:101E600090352C40174DFD352C400D882C43164DD8
:101E70002A400D7B2D062D0C2A438D782D062D0C26
:101E80002A43124DA84217D1114D2A408D7B2D06B1
:101E90002D0C2A430F4D2A400D792D062D0C2A4377
:101EA0000D4D2B400D4D2B400D8A2D052D0C2B4338
:101EB0004D8A2D052D0C2B43838084838D68C5634B
:101EC000028470BDFFFE0000FFFD0000002C0140F9
:101ED000FFF70000FFFB0000FFEF0000FFDF000046
:101EE00070B5002200230024058C134E3540058474
:101EF000038C8488828B114D2A40114D2A400D7825
:101F00002D062D0C2A430F4D2B400D7B2D072D0C3C
:101F10002B438D782D072D0C2B430B4DA84205D15B
:101F20000A4D2C400D8AAD052D0C2C4384808283F4
:101F30008D680564038470BDFFEF0000FF8F000013
:101F4000FFFC0000FFDF0000002C0140FFBF00008D
:101F5000002101804180818081608181C181018275
:101F600041827047C1627047028B034B1A40028363
:101F7000028B0A4302837047F3FF0000028B044B7D
:101F80001A400283028B0B061B0C1A430283704714
:101F9000FFF30000828B034B1A408283828B0A433B
:101FA00082837047F3FF0000828B044B1A408283C8
:101FB000828B0B061B0C1A4382837047FFF30000D1
:101FC00000220288154B984206D001239B079842B5
:101FD00002D0134B984203D1124B1A404B881A433C
:101FE000114B984203D0114B1A400B891A430280BF
:101FF0004B68C3620B880385084B984208D00C4B92
:10200000984205D00B4B984202D00B4B984201D11D
:102010008B7A03860123838270470000002C0140E5
:10202000000400408FFF000000100040FFFC000093
:102030000040014000440140004801407CB57A491D
:102040007A4800F022F9012877D17749774800F0E3
:1020500007F900BF754800F0DDF9C1B27448827815
:10206000001D8154001F8078401CC0B27049488018
:1020700000BF084680780978401AC0B204285CD3B3
:102080006B4B1C881B1D1A5D1B1F1B785B1CDBB276
:10209000674C238011460C02654B1D881B1D5A5D41
:1020A0001B1F1B785B1CDBB2614D2B801046221876
:1020B000604B1A802A461388121DD15C121F1278B9
:1020C000521CD2B22B461A8008460D2874D11A46EB
:1020D0001388121DD15C121F1278521CD2B22B46EB
:1020E0001A8008460A28F1D1524800880122D203FA
:1020F000811A904222D015DC4F4A811A904229D091
:1021000006DC20281ED0FF380138002855D110E009
:10211000FF39FF390239002918D001208002081A3E
:102120004BD11BE00B0000F07AF906481D20242F4C
:102130003A480420414908806EE074E010203F498D
:10214000088069E002203D49088065E008203B499D
:10215000088061E02020394908805DE0012037498E
:10216000088059E005F034FA56E0012034498872BD
:1021700052E000205A212923324A0091019032492D
:10218000012004F097FD47E000206C2126232F4A10
:10219000009101902E49012004F08CFD3CE00120CB
:1021A0008C212B232B4A009101902B4904F082FDB6
:1021B0000120234948702FE02FE0FF2101312748FB
:1021C000FEF7E9FC002801D1012000E000200128F1
:1021D00005D1012201022148FEF7E7FC05E00022BB
:1021E000FF2101311D48FEF7E0FC13491B48FEF7B3
:1021F000D2FC002801D1012000E00020012805D1F7
:10220000012241021548FEF7D0FC04E000220A49F1
:102210001248FEF7CAFC00BF00BF00BF00200449FF
:102220000880488000BF7CBD0501050000380140E2
:102230004C0500202E00002000020000300000208D
:1022400098070020068F0008B48E0008228E000830
:10225000D68D0008D09100087A9100080008004847
:1022600010B5002300220B0C01249C402246026280
:1022700010BD002904D0026801231A43026003E064
:102280000268520852000260704770B502460B4661
:1022900000240021002500201E04350ED9B201269D
:1022A0008E403146012D02D11668314006E0022DE4
:1022B00002D15668314001E0966831401C0C01267D
:1022C000A6403446D6693440002903D0002C01D002
:1022D000012000E0002070BDF8B503460024002670
:1022E00000960025002018460E04340ECEB200964B
:1022F0000127009EB7403D46022C01D1001D02E09F
:10230000032C00D10830002A03D006682E43066053
:1023100002E00668AE430660F8BD0000F0B58BB081
:1023200004460D46002700200A9000262068400839
:102330004000206066680321090330468843064652
:10234000A8680643666026682D480640E968686804
:1023500008432969084306432660A6680321090249
:1023600030468843064668690643A6606846FFF71C
:1023700011F82448844202D106980A900DE02248C0
:10238000844202D107980A9007E02048844202D193
:1023900008980A9001E002980A9020680121C90378
:1023A000084000280CD029680A9A5000FEF74DF921
:1023B000074629680A9A5000FEF747F90E4609E0D9
:1023C00029680A98FEF741F9074629680A98FEF736
:1023D0003CF90E4628684008B04200D87F1C2068AF
:1023E0000121C9030840002806D03807460F3846A7
:1023F0000749084030430746A7810BB0F0BD0000F5
:10240000F3E9FFFF0038014000440040004800406D
:10241000F0FF00000146888CC005C00D704730B445
:102420007446641E2578641CAB4204D3635D5B0074
:10243000E31830BC18471D46F8E730380A2801D2A7
:1024400001207047002070471CB501214804FEF7A9
:1024500071FF0F2000900021684601710121417138
:1024600000218171C17169460920C006FEF71FFB7A
:1024700001218805FEF75EFF302000906946024882
:10248000FEF715FB1CBD00000014004870B50025C8
:1024900000267F2435E03748005DFF282FD12046F5
:1024A00080303449085CFF2829D1E01DF930085CF0
:1024B0000007000F0F2822D10020085500212046D8
:1024C00080302C4A115480301146085CF0210840BD
:1024D000E11DF93150540021601E11548030115417
:1024E00080301146095CF0200140E01DF8301154A5
:1024F000002E00D12646A81C85B2601E84B2601E44
:1025000084B2002CC7DC002D32D0304604F080FDB0
:10251000022D06D0042D0AD0062D0FD0082D1CD177
:1025200014E01548008864301349088016E012480A
:102530000088FF302D30104908800FE00E480088D9
:10254000AF21890040180C49088007E00A4800883C
:102550000A4940180849088000E000BF00BF28462B
:10256000E90F09184910064A12888918044A11808F
:1025700070BD00004C010020AC000020DC05000014
:10258000B0000020F8B53448008C0121C90288420F
:1025900001D10120F8BD0025002454E020460C3074
:1025A00040002D49401800902046083040000E465B
:1025B0008319201D4000821960008119012002F05A
:1025C00083FA4019C5B26000314640180090201DC2
:1025D00040008319204608304000821920460C3004
:1025E00040008119012002F06FFA4019C5B2E000E5
:1025F000314640180090A000401C40008319A00004
:10260000801C40008219A000C01C400081190120DC
:1026100002F05AFA4019C5B2A000C01C4000314671
:1026200040180090A000801C40008319A000401CAE
:1026300040008219E0008119012002F045FA40199A
:10264000C5B2601CC4B2042CA8DB002D01D100204F
:10265000A0E702209EE700005400002010B50021F2
:102660001220FEF773FC2448C16824A08847022189
:102670000020FEF76BFC2048C16828A088471E494F
:1026800008698047002434E001F07CFB082002F058
:1026900019F900280CD02A4800F064F8002C01D069
:1026A000012000E00020201AC4B2204600F0C2F849
:1026B000022002F007F900280CD0214800F052F85F
:1026C000012C01D0012000E000200019C4B22046F6
:1026D00000F0B0F8202002F0F5F8002809D01848E2
:1026E00000F040F8044881690020884715480470CC
:1026F00000E0C9E700BF10BD0C000020D092D18BD4
:10270000D0B1D0B5D180D0B8D182D0B520D0B4D09E
:10271000B8D0BDD0B0D0BCD0B8D0BA003ED0BCD0BC
:10272000B0D0BBD0B5D0BDD18CD0BAD0B8D0B92044
:1027300020D0B1D0BED0BBD18CD188D0BED0B90012
:10274000102700009807002010B50348FEF722FE6E
:1027500002480349086010BD24010020400D030019
:102760000400002010B50446054906480068FDF73E
:102770006CFF444300BF2046641E0028FBD110BDFF
:1027800000127A001001002010B5012189022448AE
:10279000FDF757FF00202349087000F085F83DE061
:1027A00001F0F0FA082002F08DF8002810D01E4841
:1027B000FFF7D8FF1B480078002801D0012000E077
:1027C000002018490978081A1649087000F06CF8BA
:1027D000022002F077F8002810D01348FFF7C2FF5C
:1027E00010480078022801D0012000E000200D49A7
:1027F000097840180B49087000F056F8202002F0C4
:1028000061F8002807D00848FFF7ACFF0748816946
:102810000020884710BD0648FFF7A4FFC0E700006E
:102820004C01002052000020102700000C00002066
:10283000A086010010B5044602210020FEF786FBA9
:10284000002C01D105A200E00DA21046154AD16866
:1028500088470220FEF702FA10BD00003ED0BCD02F
:10286000B0D0BBD0B5D0BDD18CD0BAD0B8D0B92003
:1028700020D0B1D0BED0BBD18CD188D0BED0B900D1
:1028800020D0BCD0B0D0BBD0B5D0BDD18CD0BAD0C8
:10289000B8D0B9203ED0B1D0BED0BBD18CD188D079
:1028A000BED0B9000C00002010B505F041FF2A2071
:1028B000174908800846C16816A08847FF208D3058
:1028C000134908800846C16816A08847A3208000E5
:1028D0000F4908801C480078002804D0012807D040
:1028E00002280FD109E00A48C16818A0884709E00A
:1028F0000748C1681DA0884704E00548C16823A0B7
:10290000884700BF00BF02490869804710BD00002A
:102910000C000020D097D0BCD0B5D0B9D0BAD0B080
:1029200000000000D092D18BD0B1D0B5D180D0B80A
:10293000D182D0B520D181D0BBD0BED0B6D0BDD051
:10294000BED181D182D18C00520000203ED0BBD0BC
:10295000B5D0B3D0BAD0BE2020D181D180D0B5D0EF
:10296000B42020D181D0BBD0BED0B60020D0BBD007
:10297000B5D0B3D0BAD0BE203ED181D180D0B5D0B1
:10298000B42020D181D0BBD0BED0B60020D0BBD0E7
:10299000B5D0B3D0BAD0BE2020D181D180D0B5D0AF
:1029A000B4203ED181D0BBD0BED0B60010B5072137
:1029B0000020FEF7CBFA0E480078002804D001284A
:1029C00007D002280FD109E00A48C1680AA0884749
:1029D00009E00848C16811A0884704E00548C168BB
:1029E00017A0884700BF00BF02490869804710BD93
:1029F0002C0000200C0000203ED182D0B5D181D126
:102A0000822020D0B7D0B0D185D0B2D0B0D1822032
:102A100020D0BED182D0BFD1802E000020D182D064
:102A2000B5D181D182203ED0B7D0B0D185D0B2D03F
:102A3000B0D1822020D0BED182D0BFD1802E000064
:102A400020D182D0B5D181D1822020D0B7D0B0D1D1
:102A500085D0B2D0B0D182203ED0BED182D0BFD1FD
:102A6000802E000010B514200F4908800846C16868
:102A70000EA08847FF201F300B49088013480078BC
:102A8000002802D001280AD104E00748C16810A03C
:102A9000884704E00448C16811A0884700BF00BF10
:102AA00001490869804710BD0C000020D092D0BABF
:102AB000D0BBD18ED187D0B8D182D18C20D0BCD11F
:102AC00083D0B7D18BD0BAD1833F00005100002012
:102AD0003ED0BDD0B5D1822020D0B4D0B00000000F
:102AE00020D0BDD0B5D182203ED0B4D0B0000000FF
:102AF00010B514200F4908800846C1680EA0884709
:102B0000FF2015300B49088013480078002802D0B8
:102B100001280AD104E00748C16810A0884704E0F2
:102B20000448C16811A0884700BF00BF0149086977
:102B3000804710BD0C000020D092D0BAD0BBD18EFF
:102B4000D187D0B8D182D18C20D0BCD183D0B7D19D
:102B50008BD0BAD1833F0000C00000203ED0BDD052
:102B6000B5D1822020D0B4D0B000000020D0BDD09C
:102B7000B5D182203ED0B4D0B000000010B5002105
:102B80000846FEF7E3F9002413E00D4A1268944268
:102B900001D10CA200E00CA210460C4AD168884773
:102BA000292262430A4BD018084AD1688847601C22
:102BB000C4B2062CE9D305490869804710BD00005E
:102BC000380000203E000000200000000C00002023
:102BD000E08C000870B50020D4490880D4490880F2
:102BE00001218902D348FDF72CFD0020D24908704D
:102BF000D248D3490880D348007800282BD0012040
:102C000012E0CC49095C01221143CA4A1154072140
:102C1000C9014118515C802211430722D201821858
:102C2000C44B9954411C88B28028EAD300200EE09E
:102C3000C049095CFF221143BE4A11544106490EA6
:102C4000002901D17F2100E00121091888B201216A
:102C500089028842ECD3BB480078012862D1BA4887
:102C6000B749088032230A2017E00146FF3181313D
:102C7000B04A515C802211430246FF328132AD4C92
:102C8000A154114640312246515C80221143024634
:102C9000FF32C132A154411C88B29842E5DB1423B3
:102CA0000A203CE00146C417640F6418E410E401F4
:102CB0004034A04D2C5D0246C5176D0FAD18ED10C8
:102CC000ED00461B0125B5402C43C5176D0F6D184F
:102CD000ED10ED014035974E7455C41CE118CC172A
:102CE000640F6418E410E401403435462C5DC51CC3
:102CF000EA18D5176D0FAD18ED10ED00561B012524
:102D0000B5402C43E5B2C41CE118CC17640F64181D
:102D1000E410E4014034874E3555411C88B2984296
:102D2000C0DB00BF8748007802287DD17D200001EC
:102D30008349088000201BE00A2801DD0F2807DBFB
:102D4000642801DD692803DB3D2802D9432800D22D
:102D50000CE0C11DFF31FA31764A515C102211435B
:102D6000C21DFF32FA32734B995400BF411C88B226
:102D70008028E1D3002027E0052801DD0A2803DBB5
:102D8000312802D9362800D21CE00146C3175B0F58
:102D90005B18DB10DB012033664CE35C0246C41792
:102DA000640FA418E410E400051B0124AC40234385
:102DB000DCB2C3175B0F5B18DB10DB0120335D4D0A
:102DC000EC5400BF411C88B24028D5D3002027E036
:102DD0000A2801DD0F2803DB312802D9362800D26A
:102DE0001CE00146C3175B0F5B18DB10DB0160338F
:102DF000504CE35C0246C417640FA418E410E400CE
:102E0000051B0124AC402343DCB2C3175B0F5B18E6
:102E1000DB10DB016033474DEC5400BF411C88B22E
:102E20004028D5D31F2020E078E003210902411873
:102E3000404A515C022211430322120282183D4B88
:102E40009954432802D9482800D20CE003210902F2
:102E50004118384A515C4022114303221202821861
:102E6000344B995400BF411C88B26228DDD30A203C
:102E700039E00146C3175B0F5B18DB10DB015133F0
:102E80002C4CE35C0246C417640FA418E410E40061
:102E9000051B0124AC402343DCB2C3175B0F5B1856
:102EA000DB10DB015133234DEC540F2819DBC31722
:102EB0005B0F5B18DB10DB0156332C46E35CC41759
:102EC000640FA418E410E400051B0124AC40234364
:102ED000DCB2C3175B0F5B18DB10DB015633154DFB
:102EE000EC54411C88B21228C3DB512014E0014687
:102EF0008031104A515C04221143024680320D4B4E
:102F00009954562806D911461A46515C802211431D
:102F100082189954411C88B26228E8D304F0D4FA8C
:102F200000F0BEF801490869804770BD0C00002020
:102F30004C0000204C010020500000200C1E00001E
:102F40004E00002052000020241A000010B500207E
:102F500009E000212B4A1154102802DA42002A4BC2
:102F60009952411C88B2012189028842F1D3022082
:102F70002549088400202549088001201CE0002103
:102F80000AE00A181F4B9A5C01231A430B181D4CC8
:102F9000E2540A46803291B2FF2281329142F0D34C
:102FA0008118184A515C812211430246FF32813256
:102FB000144B9954411C88B24828E0DB002011E0F2
:102FC00000210AE042180F4B9A5CFF231A43431872
:102FD0000C4CE2540A46123291B25A29F2DB0146F5
:102FE000803188B2012149028842E9D300F0D2FB46
:102FF00000F0D0FB05F0DCFA05F078FBFDF702FEEF
:1030000010BD00004C01002054000020760000207C
:1030100010B50220184908700020184908600820DF
:103020001749086000201749088017490880174889
:103030001749086001201749087081021648FDF7FA
:1030400000FB00F0C5FB05F0EFF900200BE0C11D0F
:10305000F931114A515C10221143C21DF9320E4B55
:103060009954411C88B28028F1D305F07DF90B49B1
:103070000869804710BD0000BA000020A0000020B1
:10308000A4000020AC000020B0000020307500003B
:10309000BC000020BB0000204C0100200C000020E0
:1030A000F0B593B003F03CFE06463E21FDF7CDFAA5
:1030B0008D1C3E212846FDF7C8FAFE48017003F03A
:1030C0002FFE06467E21FDF7C0FA8D1C7E21284684
:1030D000FDF7BBFAF748417003F022FE0746FDF703
:1030E0008DFB0546F44AF54B05F0B2FB01D30120F8
:1030F00000E00020EF49887000240846807800280E
:103100007ED11BE0EB484078401CEA4948700846F5
:10311000407880280AD10020487008460078401C7A
:103120000870084600788006800E0870601C84B223
:1031300001204003844201D913B0F0BDDD4D2D784C
:103140000B95ED176E0F0B9D7519ED10ED01D94E16
:103150007678AD19DA4E755DD64E36780C96F61740
:10316000770F0C9EBE19F610F7000C9EF61B35412A
:10317000ED07ED0F002DC5D1CE4D2D786D1E0D95AF
:10318000ED176E0F0D9D7519ED10ED01C94E767896
:10319000AD19CB4E755DC74E3678731EDE17760FB0
:1031A000F618F610F6009E1B3541ED07ED0F002DC9
:1031B000A8D1C04D2D786D1C0E95ED176E0F0E9D8C
:1031C0007519ED10ED01BB4E7678AD19BC4E755DED
:1031D000B84E3678721CD617760FB618F610F60071
:1031E000961B3541ED07ED0F002D8BD1B14D2D789C
:1031F0000F95ED176E0F0F9D7519ED10ED0100E0A5
:1032000081E0AC4E7678AD196D1CAD4E755DA94E62
:103210003178CE17760F7618F610F6008E1B3541F2
:10322000ED07ED0F002DA6D1A24D2D781095ED17CD
:103230006E0F109D7519ED10ED019E4E7678AD194B
:103240006D1E9F4E755D9B4E3078C617760F3618F3
:10325000F610F600861B3541ED07ED0F002D8AD1E3
:10326000944D2D78974E0027F757ED1B1195002DA3
:1032700001DB119D01E0119D6D42022D00DA41E755
:103280008C4D6D788F4E0127F757ED1B1295002D51
:1032900001DB129D01E0129D6D42022DEFDB854D99
:1032A0002D78032DEBDB834D2D783D2DE7D8814D17
:1032B0006D78032DE3DB7F4D6D787D2DDFD87D4A62
:1032C0001078C217520F1218D210D201794B5B78C6
:1032D000D2187B4B9A5C774B1978CB175B0F5B1836
:1032E000DB10DB00CD1A0123AB401A43714B187879
:1032F000C3175B0F1B18DB10DB016E4D6D785B197C
:103300006F4DEA543EE21AE06A484078401C694931
:1033100048700846407880280AD100204870084646
:103320000078401C0870084600788006800E0870FF
:10333000601C84B201204003844200D9FCE65D4D4C
:103340002D780195ED176E0F019D7519ED10ED01AA
:10335000584E7678AD195A4E755D564E36780296AF
:10336000F617770F029EBE19F610F700029EF61BA5
:103370003541ED07ED0F002DC6D14E4D2D786D1E58
:103380000395ED176E0F039D7519ED10ED01494E74
:103390007678AD194A4E765D464D2D786D1E0495B2
:1033A000ED176F0F049D7D19ED10EF00049DED1BCF
:1033B0002E41F507ED0F002DA6D13E4D2D786D1C49
:1033C0000595ED176E0F059D7519ED10ED01394E40
:1033D0007678AD193A4E765D364D2D786D1C069592
:1033E000ED176F0F069D7D19ED10EF00069DED1B8B
:1033F0002E41F507ED0F002D86D12E4D2D78079526
:10340000ED176E0F079D7519ED10ED01294E7678B9
:10341000AD196D1C2A4E765D264D2D780895ED1759
:103420006F0F089D7D19ED10EF00089DED1B2E41DB
:10343000F507ED0F002D9FD11E4D2D780995ED1745
:103440006E0F099D7519ED10ED011A4E7678AD19C4
:103450006D1E1B4E765D174D2D780A95ED176F0F7B
:103460000A9D7D19ED10EF000A9DED1B2E41F50719
:10347000ED0F002DA0D10F4D2D78AD1E0B95ED1742
:103480006E0F0B9D7519ED10ED010A4E7678AD1992
:103490000B4E755D074E3678B31EDE17760FF618A5
:1034A000F610F6009E1B3541ED07ED0F002DA3D160
:1034B000004D09E048000020676666999999D94156
:1034C0004C010020AC0700202D78AD1C0C95ED17A9
:1034D0006E0F0C9D7519ED10ED01AB4E7678AD19A0
:1034E000AA4E755DA84E3678B21CD617760FB61860
:1034F000F610F600961B3541ED07ED0F002D9AD121
:10350000A14D2D780D95ED176E0F0D9D7519ED10D0
:10351000ED019D4E7678AD19AD1C9C4E755D9A4EB1
:103520003178CE17760F7618F610F6008E1B3541DF
:10353000ED07ED0F002D9DD1934D2D780E95ED17D4
:103540006E0F0E9D7519ED10ED018F4E7678AD1949
:10355000AD1E8E4E755D8C4E3078C617760F3618C0
:10356000F610F600861B3541ED07ED0F002D9ED1BC
:10357000854D2D78864E0027F757ED1B0F95002DB2
:1035800001DB0F9D01E00F9D6D42022D00DABBE6CD
:103590007D4D6D787E4E0127F757ED1B1095002D60
:1035A00001DB109D01E0109D6D42022DEFDB764D99
:1035B0002D78774E0327F757ED1B1195002D01DB72
:1035C000119D01E0119D6D42022DE0DB6E4D6E7884
:1035D0006F4D0427EF57F51B1295002D01DB129D4F
:1035E00001E0129D6D42022DD1DB674D2D78032D38
:1035F000CDDB654D2D783D2DC9D8634D6D78032DFC
:10360000C5DB614D6D787D2DC1D85F4A1078C2173A
:10361000520F1218D210D2015B4B5B78D2185B4B61
:103620009A5C594B1978CB175B0F5B18DB10DB00EA
:10363000CD1A0123AB401A43534B1878C3175B0FC5
:103640001B18DB10DB01504D6D785B194F4DEA54B0
:103650004D4A1278501EC217520F1218D210D201C2
:10366000494B5B78D2182B469A5C474B1B78591E06
:10367000CB175B0F5B18DB10DB00CD1A0123AB40CF
:103680001A43D3B2404A1278501EC217520F121872
:10369000D210D2013C4D6D7852193C4DAB543A4A90
:1036A0001278501CC217520F1218D210D201364B8A
:1036B0005B78D2182B469A5C334B1B78591CCB177E
:1036C0005B0F5B18DB10DB00CD1A0123AB401A4304
:1036D000D3B22D4A1278501CC217520F1218D210B2
:1036E000D201294D6D785219284DAB54264A1078D5
:1036F000C217520F1218D210D201234B5B78D21886
:10370000521C2B469A5C204B1978CB175B0F5B1829
:10371000DB10DB00CD1A0123AB401A43D3B21A4AA7
:103720001078C217520F1218D210D201164D6D78B0
:103730005219521C154DAB54134A1078C217520F30
:103740001218D210D201104B5B78D218521E2B46A1
:103750009A5C0D4B1978CB175B0F5B18DB10DB0005
:10376000CD1A0123AB401A43D3B2074A1078C217CF
:10377000520F1218D210D201034D6D785219521EF9
:10378000024DAB5400BFD7E4480000204C0100209C
:10379000AC070020F8B500F053F80446FA2C10D01E
:1037A00003F0BEFA0746FDF729F80546054A064B21
:1037B00005F04EF801D2022000E004206100034A27
:1037C0005052F8BD333393CCCCCCDC4154000020B4
:1037D00010B50020134908600820134908601348F9
:1037E0000078002806D000201049087004F00EFD73
:1037F0000F4908800E4800880E49088004F006FD35
:103800000B490880002409E00A480088C00000191C
:103810000949085C09490855601CC4B2082CF3DB4F
:1038200010BD0000A0000020A4000020BB0000206C
:10383000AA000020A8000020C1000020B200002043
:1038400030B591B0402101A8FCF7FDFE0025002015
:103850000FE04100164A515A002903D1691CCDB22C
:10386000014601E00021C943820001AB9950411C8F
:1038700088B21028EDDB002D02D1FA2011B030BD46
:1038800003F04EFA0003040F09E0601CC4B22046A6
:10389000E117090F091809110901611ACCB2A0003A
:1038A00001A90858401C0028EFD02046E6E7000098
:1038B0005400002010B54B4A03215156CA17520F2D
:1038C0005218D210D301474A042414571A19521C13
:1038D000454B9A5C434B03201856C3175B0F1B18CC
:1038E000DB10DB00C31A1A41D207D20F002A01D025
:1038F000022010BD3B4A03215156CA17520F5218DD
:10390000D210D301374A042414571A19521E364BC9
:103910009A5C344B03201856C3175B0F1B18DB103F
:10392000DB00C31A1A41D207D20F002A01D00120AE
:10393000DFE72C4B03229A56511ECA17520F52181A
:10394000D210D301274A042414571A19264B9A5C23
:10395000244C0323E356581EC3175B0F1B18DB10C0
:10396000DB00C31A1A41D207D20F002A01D000206F
:10397000BFE71C4B03229A56511CCA17520F52180C
:10398000D210D301174A042414571A19164B9A5C03
:10399000144C0323E356581CC3175B0F1B18DB1092
:1039A000DB00C31A1A41D207D20F002A01D003202C
:1039B0009FE70C48C078002800D19AE70948C078F2
:1039C0003F2801D1032094E7064800797F2801D1E0
:1039D00002208EE703480079002801D1012088E702
:1039E000022086E7AC0700204C010020FCB5E2482D
:1039F0000122825600214156807800281ED00128DD
:103A00000FD0022802D003282FD123E0DA484078D3
:103A1000802801D1002002E0D74B01201856024631
:103A200023E0D54B01201856401C002801D17F20EF
:103A300002E0D14B01201856024616E0CE48002382
:103A4000C356002B01DA3F2002E0CB4B0020185672
:103A500001460AE0C8480078402801D3002002E06F
:103A6000C54B00201856014600BF00BFC3488078F0
:103A700000284AD1C0488078002826D0012805D0E7
:103A8000022802D003283FD120E000BFBB48407885
:103A9000904203D1B9480078884211D0B7484078A5
:103AA000904204D1481EB54B1B78984208D0B348C9
:103AB0004078904208D1B1480378481C834203D132
:103AC0000120AD4B9872FCBD1EE000BFAB484078B2
:103AD000904203D1A9480078884211D0501EA74BCC
:103AE0005B78984203D1A5480078884208D0A34863
:103AF0004378501C834207D1A0480078884203D104
:103B000001209D4B9872DEE79AE09B488078002860
:103B10004FD0012805D0022802D0032848D149E01F
:103B200000BF964E7678961B0096002E01DB009E15
:103B300001E0009E7642012E09DC904E36788D1B06
:103B4000002D01DB2E4600E06E42012E2BDD8B4E58
:103B50007678941B002C01DB264600E06642012E9D
:103B60000CDC4E1E854F3F78F61B0196002E01DBC4
:103B7000019E01E0019E7642012E14DD7F4E767893
:103B8000931B002B01DB1E4600E05E42012E0FDC82
:103B90007A4E36784F1CB81B002801DB064600E041
:103BA0004642012E04DC0320734B987201208AE701
:103BB00045E000BF714F7F78D71B0197002F01DBD5
:103BC000019F01E0019F7F42012F09DC6B4F3F788D
:103BD000CE1B002E01DB374600E07742012F29DDA6
:103BE000664F7F78D71B7D1C002D01DB2F4600E040
:103BF0006F42012F09DC614F3F78CC1B002C01DBA9
:103C0000274600E06742012F14DD5C4F7F78D71B09
:103C10007B1E002B01DB1F4600E05F42012F0EDC04
:103C2000564F3F78C81B002801DB074600E047429B
:103C3000012F04DC0320504B9872012043E700BFA2
:103C40004D48807800284AD0012805D0022802D0AB
:103C500003287DD144E000BFCE17760F7618F6100A
:103C6000F601B618464F0091BE5DCF177F0F7F1843
:103C7000FF10FF00CF1B3E41F607F60F0191002E0B
:103C800029D14C1EE617760F3619F610F601B61834
:103C90003B4FBE5D4B1EDF177F0FFF18FF10FF006D
:103CA000DF1B3E41F607F60F002E14D14D1CEE1718
:103CB000760F7619F610F601B618314FBE5D481C26
:103CC000C7177F0F3F18FF10FF00C71B3E41F607C5
:103CD000F60F002E01D00220F5E60020F3E600BF2B
:103CE000D0B2402846D0CE17760F7618F610F601DF
:103CF000B618234F0091BE5DCF177F0F7F18FF10BE
:103D0000FF00CF1B3E41F607F60F0191002E2DD18B
:103D10000D46CE17760F7618F610F601B618761CFB
:103D2000174FBE5D0C46CF177F0F7F18FF10FF00A7
:103D3000CF1B3E41F607F60F002E17D10B46CE17CC
:103D4000760F7618F610F601B618761E0C4F00E0C6
:103D500010E0BE5D0846CF177F0F7F18FF10FF00F1
:103D6000CF1B3E41F607F60F002E01D00220AAE637
:103D70000020A8E60020A6E6AC07002048000020AE
:103D80004C0100207CB57D20C000FEF7EBFC002438
:103D90000CE3F8480078002857D1F74A12885300FE
:103DA000F54A121DD15A121F1278521C5206520E99
:103DB000F14B1A8008460446FF202D30844202DB76
:103DC000EE48844200DDF1E2ED4884420CDDEC482F
:103DD0008230844208DA0120E649087020204870C9
:103DE0002320000188802BE0E548C838844212DD9A
:103DF0004B20000184420EDA0120DE4908702020A9
:103E0000887148708869C969DA4AD1609060012078
:103E10001146087414E0FF20FF3084420BDDD948BE
:103E2000844208DA0220D349087030204870FF200D
:103E30009130888004E00420CE490870202048702A
:103E40000A206043CB494880AFE2CA488079C9491B
:103E5000497888424BD0C84A12885300C64A121D7E
:103E6000D15A121F1278521C5206520EC24B1A809F
:103E700008460446A02C16DDF02C14DABD488168F3
:103E8000C06849184041BB4A9160D06010468168C3
:103E9000C068012319439160D06010468079401CAE
:103EA0001146887123E03C2C0FDD7D2C0DDAB148E2
:103EB0008168C06849184041AE4A9160D0601046A0
:103EC0008079401C1146887111E00020A9490870D2
:103ED0000021A84A9160D160114688714880002174
:103EE0001046203001700020114648705EE2A14863
:103EF0008079A04949788842A6D1A3480078002853
:103F000073D19C480078012870D19A498868C968A3
:103F1000984AD161906111468868C9689B4B0246F6
:103F20005A400A433CD09A4A42400A433CD0994AFC
:103F300042400A4374D0984A42400A432CD0974AE0
:103F400042400A4334D0964A42400A4369D0954AD7
:103F500042400A4330D0944A42400A4379D0934ABF
:103F600042400A4343D0924A42400A430CD0914A0D
:103F700042400A430CD0904A42400A4352D08F4BF1
:103F80005840084370D17BE004208D49088088E0C8
:103F900010208B49088084E002208949088080E055
:103FA0000820874908807CE020208549088078E047
:103FB00001208349088074E0012149028148FCF70F
:103FC000EAFD002801D1012000E00020012805D1F0
:103FD000012241027B48FCF7E8FD05E000220121B7
:103FE00049027848FCF7E1FD5BE0CFE15AE0FF21B0
:103FF00001317448FCF7CFFD002801D1012000E019
:104000000020012805D1012201026E48FCF7CDFDF8
:1040100005E00022FF2101316A48FCF7C6FD40E0BF
:104020000BE022E06848807A012802D103F0D0FA40
:1040300002E001206449887233E000206C212623CD
:10404000624A009101906249012002F033FE28E0AB
:10405000FFE700208C2144235E4A009101905E49D5
:10406000012002F027FE1CE017E000205A2129233E
:104070005A4A009101905A49012002F01BFE10E0BB
:1040800001208C212B23574A00910190564902F0C0
:1040900011FE01204C49487003E000204849088087
:1040A00000BF62E133480078022859D1314988685D
:1040B000C9684E4B4E4D02465A400B466B401A4360
:1040C0004FD04C4A2B4642404B401A434AD04A4AB2
:1040D0002B4642404B401A4345D0484A2B4642406B
:1040E0004B401A4340D0464A2B4642404B401A436D
:1040F0003BD0444A2B4642404B401A4336D0424ABA
:104100002B4642404B401A4331D0404A2B46424056
:104110004B401A432CD03E4A2B4642404B401A4358
:1041200027D03C4A2B4642404B401A437CD03A4A67
:104130002B4642404B401A4377D0384A2B464240E8
:104140004B401A4372D0364A2B4642404B401A43EA
:104150006DD0344B2A4658405140084368D1B2E0F4
:10416000EBE07AE065E070E0B4E07AE071E091E0E5
:1041700063E066E05807002050060020B80B0000FE
:10418000140500001202000032000020F708FF00B2
:10419000EF10FF00DF20FF00B748FF00AF50FF0027
:1041A0009F60FF00659AFF005FA0FF005DA2FF0017
:1041B00057A8FF004FB0FF0037C8FF001FE0FF0007
:1041C000300000200008004898070020228E0008D8
:1041D000D68D0008D890000850900008068F00087F
:1041E000B48E0008D09100087A9100082A2B0001B3
:1041F0000440000053520001737200018D8C0001D5
:104200008F8E000193920001CFCE0001D3D2000126
:10421000F3F200011C8D90010091900174E5900172
:1042200009000009595000095FE074E068E04EE0C1
:104230007EE00420644908807EE010206249088006
:104240007AE002206049088076E008205E49088014
:1042500072E020205C4908806EE001205A49088005
:104260006AE0012149025948FCF795FC002801D178
:10427000012000E00020012805D10122410253481D
:10428000FCF793FC05E00022012149024F48FCF7AE
:104290008CFC51E0FF2101314C48FCF77CFC0028EC
:1042A00001D1012000E00020012805D101220102F6
:1042B0004648FCF77AFC05E00022FF210131434823
:1042C000FCF773FC38E001204149887234E003F0C8
:1042D0007FF931E000206C2126233E4A00910190B5
:1042E0003D49012002F0E6FC26E000208C21442319
:1042F0003A4A009101903A49012002F0DBFC1BE0B0
:1043000000205A212923374A009101903649012083
:1043100002F0D0FC10E001208C212B23334A0091C5
:104320000190334902F0C6FC01202949487003E09E
:1043300000202549088000BF17E0FF2101312348F4
:10434000FCF729FC002801D1012000E00020012811
:1043500005D1012201021D48FCF727FC05E00022DF
:10436000FF2101311948FCF720FC00202149087089
:104370000A469060D0608871488000211046203045
:10438000017000201146487008747CBD19480078FF
:10439000012805D117498868C968164AD16190611A
:1043A0000121144820300170EFE700BF1248408817
:1043B00011490988884200D0EBE40E48007C0028AF
:1043C000FAD100BFE1E700003000002000080048FB
:1043D00098070020228E0008D68D0008D89000088B
:1043E00050900008068F0008B48E0008D091000895
:1043F0007A910008580700205006002000B587B0C9
:104400000120A64908708102A548FCF71AF900218D
:104410000846FCF79BFDA348C168A3A0884700207D
:10442000FCF71CFCFEF7C2FA37E1FFF7ABFC0820F3
:1044300000F048FA002825D09F480068FEF792F95E
:104440009E480078002801D0012000E000209B4910
:104450000978081A994908700120994908700021C3
:1044600098480170002097492039487088710021D0
:10447000944A203A9160D1601146488008700874CF
:10448000FEF794FA022000F01DFA002811D08A48A5
:104490000068FEF767F989480078022801D00120FA
:1044A00000E0002085490978401884490870FEF72B
:1044B0007DFA202000F006FA00282CD07E48006803
:1044C000FEF750F97D480078022824D100207C496D
:1044D00008707C482038007804280DD00122510251
:1044E0007948FCF762FB02F05BFD002201214902E2
:1044F0007548FCF75AFB0EE0012211027248FCF7E6
:1045000054FB6D480068FEF72DF90022FF210131B0
:104510006D48FCF74AFB6B48007800287ED067485E
:1045200000780228FAD0012189025D48FCF789F859
:1045300000210846FCF70AFD5A48C16863A0884775
:1045400001210020FCF702FD5648C16863A088479E
:104550000020059006905B482038428867A105A896
:10456000FBF7D8FE4F48C16805A888470020039094
:10457000049000900190029000213620FCF7E6FCA8
:10458000504820380078012802D0022833D113E0A7
:104590004448C1685BA0884702210020FCF7D6FC94
:1045A0004848203858A182686846FBF7B3FE3D486A
:1045B000C168684688473FE03A48C16854A08847C8
:1045C00002210020FCF7C2FC3E48203853A1C268FB
:1045D00003A8FBF79FFE3348C16803A88847394802
:1045E000203849A182686846FBF794FE2D48C168CF
:1045F0006846884720E02B48C1684AA088470221C6
:104600000020FCF7A3FC2F4820383FA1C268684671
:10461000FBF780FE2348C168684600E02CE088472D
:104620002848203838A182686846FBF773FE1D4889
:10463000C1686846884700BF00BF2048007801284D
:1046400006D102201D49087000201D4908700DE0A8
:1046500000211C48017000201A49203948708871D7
:104660000A469060D060488008700874FEF79EF992
:104670000C490869804700BF012000F023F9002899
:104680000BD001200E490870064881690020884738
:1046900000200249087007B000BDC6E632000020C5
:1046A0004C0100200C000020D098D09A20D182D05C
:1046B000B5D181D182000000040000202C00002030
:1046C000330000207807002000080048D098D09AD6
:1046D00020D182D0B5D181D1823A2000D09FD18023
:1046E000D0B5D0B0D0BCD0B1D183D0BBD0B028D061
:1046F000BCD0BAD181293A200000000025303564B1
:10470000000000004E4543002530385800000000EE
:1047100050616E61736F6E6963000000253034581C
:1047200000000000556E6B6E6F776E0000B58DB0A7
:1047300001214804FCF7FEFDFF2001300B9002210F
:1047400008A8017401214174002181740221C174FF
:104750000BA90920C006FCF7AAF9022208210920AA
:10476000C006FCF7ECF90121C802FCF703FE4D4935
:104770004D480068FBF769FF401E81B2684601841E
:1047800000214184494809906846018508A94848A4
:10479000FDF716FC002168468182042181830221F5
:1047A000C182002141830121018305A94048FDF711
:1047B000B3FA012202213E48FDF7E6FA0E20FCF78B
:1047C000AFFD01213A48FDF783FA0121C804FCF747
:1047D000B1FD80200B90022108A8017401214174D1
:1047E00000218174C1740BA93248FCF760F90121E2
:1047F0000220FCF7AFFD30492B480068FBF725FF8E
:10480000401E81B26846018400214184192009902C
:104810006846018508A92948FDF7D2FB6846FDF7DF
:1048200097FB602168460180002141808180818161
:104830000D20029069462148FDF7B0FA01211F487A
:10484000FDF746FA01210804FCF794FD1A491648C1
:104850000068FBF7FAFE401E81B268460184002121
:1048600041842320000109906846018508A9144865
:10487000FDF7A6FB012211461148FDF785FA142029
:10488000FCF74EFD00210E48FDF722FA002204211C
:104890000A48FDF70BFA002280210648FCF785F94B
:1048A0000DB000BDA086010010010020FFFF000038
:1048B000002C01400008004840420F000004004066
:1048C0000040014070B50446102C01D0202C01D1CD
:1048D0000F4801E00920C00605460E480088A042A6
:1048E00004D100200B490880012070BD21462846D4
:1048F000FCF747F9012809D10520FDF733FF2146D0
:104900002846FCF73EF9012800D1EEE70020ECE74D
:10491000001400483000002030B5002116E0CB170D
:104920005B0F5B18DB10DB010A4CE35C0846CC171D
:10493000640F2418E410E4000D1B0124AC40234054
:10494000002B01D0012030BD481CC1B21429E6DB88
:104950000020F8E74C0100201CB50121C804FCF739
:10496000E9FC0320000200900121684601714171B9
:1049700000218171C17169460148FCF798F81CBD9E
:104980000008004862B6FDF7DFFEFDF75DFDFFF7AA
:10499000E3FFFCF72BFAFFF7C9FE03F099FC02F0E6
:1049A00029FFFCF7DFF9FCF7D9FA00BFFEE70000AA
:1049B000F8B506460025002E06D0012E56D0022E50
:1049C00038D0032E6ED11AE0002415E020460C30BA
:1049D00040003C49401800902046083040000F46F7
:1049E000C319201D4000C2196000C119002000F049
:1049F0006BF84019C5B2641C042CE7DB52E00024BC
:104A000015E060002F4940180090201D40000F461F
:104A1000C319204608304000C21920460C3040001F
:104A2000C119002000F050F84019C5B2641C042CD4
:104A3000E7DB37E0002416E0E00022494018009050
:104A4000A000401C40000F46C319A000801C40007D
:104A5000C219A000C01C4000C119002000F034F8A9
:104A60004019C5B2641C042CE6DB1BE0002416E0F0
:104A7000A000C01C4000134940180090A000801CFA
:104A800040000F46C319A000401C4000C219E000BE
:104A9000C119002000F018F84019C5B2641C042C9C
:104AA000E6DB00BF00BF03F083FD03F01FFEFCF751
:104AB000A9F8002D05D0FEF76DFE03F079FDFCF797
:104AC000A1F8F8BD54000020FFB582B004460B8861
:104AD00068460380049803886846438005980388E5
:104AE000684683800B9803886846C38000220123B0
:104AF00021E058006D46285A002800D119E0581EC0
:104B000013E045006E46755B002D0CD1451C6D0011
:104B1000755B46006F46BD530026451C6D007E53F5
:104B2000551CEAB200E002E0401E0028E9DA00BFAE
:104B300000BF581CC3B2042BDBDB012041E0430063
:104B40006D46EB5A002B00D139E0002836D0431EC9
:104B50005B006D46EB5A45006E46755BAB422DD14E
:104B6000431E5B006D46EB5A5B041D0C431E5B004D
:104B7000F552002345007353531CDAB2002C1DD1AB
:104B8000012C01D1002303E0431E5B006D46EB5A6C
:104B90002D4D2D885B192C4D2B80431E5B006D46DF
:104BA000EB5A2A4D2D8CAB4204DD431E5B006D4653
:104BB000EB5A01E0254B1B8C244D2B8400BF431C7A
:104BC000D8B20428BBDB012321E058006D46285AE7
:104BD000002800D119E0581E13E045006E46755BB1
:104BE000002D0CD1451C6D00755B46006F46BD5312
:104BF0000026451C6D007E53551CEAB200E002E021
:104C0000401E0028E9DA00BF00BF581CC3B2042BC5
:104C1000DBDB002A02D1002006B0F0BD012C01D15F
:104C20000120F9E7684600880880684643880498B0
:104C3000038068468388059803806846C3880B987C
:104C400003800120E8E700007600002054000020E7
:104C50001FB5FE49002008560190C017410F01986A
:104C60000818C010C001F94901228A56801880B284
:104C700003900846807800287ED001287DD0022845
:104C800002D003287AD13DE3F04900200856019074
:104C9000C017410F01980818C010C1000198401AB0
:104CA00001218140EA4A0398125C8A43E8490A5488
:104CB000E64900200856401C0090C017420F00989B
:104CC0001018C010C00101228A568018E0490A5C01
:104CD000DE4900200856401C0190C017430F019880
:104CE0001818C010C3000198C11A012088408243DF
:104CF000D64900200856401C0090C017430F00986A
:104D00001818C010C0010123CB56C018D0490A544E
:104D1000CE4900200856401E0090C017420F009850
:104D20001018C010C00101228A568018C8490A5CB8
:104D3000C64900200856401E0190C017430F019835
:104D40001818C010C3000198C11A0120884082437E
:104D5000BE4900200856401E0090C017430F00981F
:104D60001818C010C0010123CB56C018B8490A5406
:104D7000B6484078002802E0FAE1C0E0C1E265D020
:104D8000B24900200856401C0090C017410F0098FF
:104D90000818C010C001AD4901228A568018401E73
:104DA000AB490A5CA94900200856401C0190C01775
:104DB000430F01981818C010C3000198C11A0120B0
:104DC00088408243A14900200856401C0090C0172B
:104DD000430F00981818C010C0010123CB56C0180B
:104DE000401E9B490A54994900200856401E0090D5
:104DF000C017420F00981018C010C00101228A5637
:104E00008018401E92490A5C904900200856401EB6
:104E10000190C017430F01981818C010C3000198E3
:104E2000C11A012088408243884900200856401E4C
:104E30000090C017430F00981818C010C00101233C
:104E4000CB56C018401E82490A5457E07F490020C3
:104E50000856401C0090C017410F00980818C01059
:104E6000C0017F307A490A5C784900200856401C0E
:104E70000190C017430F01981818C010C300019883
:104E8000C11A012088408243704900200856401C06
:104E90000090C017430F00981818C010C0017F3051
:104EA0006B490A54694900200856401E0090C017FB
:104EB000420F00981018C010C0017F3064490A5C8E
:104EC000624900200856401E0190C017430F019808
:104ED0001818C010C3000198C11A012088408243ED
:104EE0005A4900200856401E0090C017430F0098F2
:104EF0001818C010C0017F3055490A54DFE25349E9
:104F0000002008560190C017410F01980818C010E2
:104F1000C1000198401A012282404D490398095C62
:104F200091434B4A1154494900200856401C0090B7
:104F3000C017420F00981018C010C00101228A56F5
:104F4000801843490A5C414900200856401C0190E2
:104F5000C017430F01981818C010C3000198C11A58
:104F6000012088408243394800214156491CC81716
:104F70000091410F00980818C010C0013349012367
:104F8000CB56C01832490A54304900200856401EFA
:104F90000090C017420F00981018C010C0010122E5
:104FA0008A5680182A490A5C284900200856401E63
:104FB0000190C017430F01981818C010C300019842
:104FC000C11A012088408243204900200856401E13
:104FD0000090C017430F00981818C010C00101239B
:104FE000CB56C0181A490A54184840787F286AD00E
:104FF000164900200856401C0090C017410F009829
:105000000818C010C001114901228A568018401C9E
:105010000F490A5C0D4900200856401C0190C0173A
:10502000430F01981818C010C3000198C11A01203D
:1050300088408243054900200856401C0090C01754
:10504000430F00981818C010C00103E0AC070020FF
:105050004C0100200123CB56C018401CFE490A54C5
:10506000FE4900200856401E0090C017420F0098CD
:105070001018C010C00101228A568018401CF64941
:105080000A5CF64900200856401E0190C017430FE5
:1050900001981818C010C3000198C11A0120884057
:1050A0008243EE4900200856401E0090C017430F6F
:1050B00000981818C010C0010123CB56C018401C1E
:1050C000E5490A5453E0E54900200856401C009089
:1050D000C017410F00980818C010C001DE490A5CD3
:1050E000DE4900200856401C0190C017430F01986C
:1050F0001818C010C3000198C11A012088408243CB
:10510000D64900200856401C0090C017430F009855
:105110001818C010C001D0490A54D04900200856C0
:10512000401E0090C017420F00981018C010C00118
:10513000C9490A5CC94900200856401E0190C017A1
:10514000430F01981818C010C3000198C11A01201C
:1051500088408243C14900200856401E0090C01775
:10516000430F00981818C010C001BB490A54A6E1AB
:10517000BA49002008560190C017410F019808183D
:10518000C010C1000198401A01218140B24A039821
:10519000125C8A43B0490A54B04800214156C817EE
:1051A0000191410F01980818C010C1000198401AE0
:1051B000012181400398401EA74A125C8A4303984C
:1051C000401EA5490A54A54800214156C81701911F
:1051D000410F01980818C010C1000198401A012120
:1051E00081409D4A0398401C125C8A439A49039867
:1051F000401C0A54994800783F2866D097490020FF
:105200000856401C0090C017410F00980818C010A5
:10521000C001924901228A568018401E8E490A5CBC
:105220008E4900200856401C0190C017430F01987A
:105230001818C010C3000198C11A01208840824389
:10524000864900200856401C0090C017430F009864
:105250001818C010C0010123CB56C018401E7E494B
:105260000A547E4900200856401C0090C017420F87
:1052700000981018C010C00101228A568018401CE6
:1052800075490A5C754900200856401C0190C017FA
:10529000430F01981818C010C3000198C11A0120CB
:1052A000884082436D4800214156491CC81700912F
:1052B000410F00980818C010C00168490123CB565F
:1052C000C018401C64490A541BE064490120085678
:1052D000401E6149085C41084900604A012010569F
:1052E000401E5D4A11545D4901200856401C11467C
:1052F000085C41084900594A01201056401C564A92
:105300001154DCE05549002008560190C017410FA8
:1053100001980818C010C1000198401A012181406D
:105320004D4A0398125C8A434B490A544B4800216A
:105330004156C8170191410F01980818C010C100CB
:105340000198401A012181400398401E424A125C94
:105350008A430398401E40490A5440480021415660
:10536000C8170191410F01980818C010C100019899
:10537000401A01218140384A0398401C125C8A433C
:1053800035490398401C0A543448007800286DD0F1
:10539000324900200856401E0090C017410F009867
:1053A0000818C010C0012D4901228A568018401EDD
:1053B00029490A5C294900200856401E0190C0175F
:1053C000430F01981818C010C1000198411A01201C
:1053D00088408243214800214156491EC817009148
:1053E000410F00980818C010C0011C490123CB567A
:1053F000C018401E18490A54184900200856401E7B
:105400000090C017420F00981018C010C001012270
:105410008A568018401C10490A5C10490020085622
:10542000401E0190C017410F01980818C010C1001C
:105430000198411A012088408243084800214156C2
:10544000491EC8170091410F00980818C010C001EC
:1054500002490123CB5604E04C010020AC07002098
:1054600004E0C018401CF9490A5427E0F84901201B
:1054700008560721C9014018401EF449085C8021E4
:105480008843F34A012151560722D2018918491E47
:10549000EE4A5054EE49012008560721C901401830
:1054A000401C1146085C80218843E94A012151567D
:1054B0000722D2018918491CE44A505400BF00BF9A
:1054C000E3488079002860D0012831D0022802D03A
:1054D00003282CD186E0DE488078DD49897988422E
:1054E00006D1DB484078401C40B2D94948701EE0E4
:1054F000D748807800280BD1D5480078401C40B2AE
:10550000D349087008464078801C40B248700EE0CD
:10551000CF48807803280AD1CD480078401E40B299
:10552000CB49087008464078801C40B2487086E03D
:10553000C7488078C6498979884206D1C4484078EE
:10554000401E40B2C24948701EE0C1488078002821
:105550000BD1BF480078401C40B2BD4908700846D6
:105560004078801E40B248700EE0B9488078032829
:105570000AD1B7480078401E40B2B54908700846C5
:105580004078801E40B2487059E0B1488078B049F8
:105590008979884206D1AE480078401E40B2AC49B5
:1055A00008701EE0AA48807802280BD1A8484078ED
:1055B000401E40B2A649487008460078801E40B29E
:1055C00008700EE0A248807801280AD1A0484078EF
:1055D000401C40B29E49487008460078801E40B288
:1055E00008702CE09A48807899498979884206D1D8
:1055F00097480078401C40B2954908701EE09448D6
:10560000807802280BD192484078401E40B29049E1
:10561000487008460078801C40B208700EE08C4844
:10562000807801280AD18A484078401C40B28849D5
:10563000487008460078801C40B2087000BF00BF68
:105640008348807982498870FEF7D0F902908048BB
:1056500000214156C8170191410F01980818C01048
:10566000C0017B494978401881B203910298012812
:105670007ED17848807800287AD0764800780090EB
:10568000C017410F00980818C010C001714949782F
:1056900040186E49095C6F480278D0170192420F9A
:1056A00001981018C010C2000198821A0120904081
:1056B0000A46824367480178C817430F5818C0103C
:1056C000C001009163494978401860490A54614813
:1056D0000078401E0090C017420F00981018C010AC
:1056E000C0015C494978401858490A5C594800781B
:1056F000401E0190C017410F01980818C010C1004A
:105700000198411A01208840824352480178491E7D
:10571000C8170091410F00980818C010C0014D49EA
:105720004978401849490A544A480078401C00907A
:10573000C017420F00981018C010C00145494978A1
:10574000401842490A5C43480078401C0190C01749
:10575000430F01981818C010C3000198C11A012006
:10576000884082433B480078401C0090C01700E00E
:1057700061E0430F00981818C010C00135494978FE
:10578000401832490A54334800780090C017420F3D
:1057900000981018C010C0012E4949784018401CCC
:1057A0002A49095C2B480278D0170192420F0198D0
:1057B0001018C010C2000198821A01209040814345
:1057C00024480278D0170092420F00981018C01099
:1057D000C001204A52788018401C1C4A11541D48B0
:1057E0000178C8170091410F00980818C010C00137
:1057F000184949784018401E1146095C154802783E
:10580000D0170192420F01981018C010C2000198E1
:10581000821A0120904081430E480278D0170092EE
:10582000420F00981018C010C0010A4A5278801820
:10583000401E064A11540648807800287ED0012870
:105840007DD0022808D003287AD1FDE34C01002046
:10585000AC07002048000020FE4900200856401CEC
:105860000090C017410F00980818C010C001F949F6
:1058700049784018401EF8490A5CF649002008564D
:10588000401C0190C017410F01980818C010C100BA
:105890000198411A012088400243EE4800214156F8
:1058A000491CC8170091410F00980818C010C0018A
:1058B000E84949784018401EE7490A54E549002064
:1058C0000856401E0090C017420F00981018C010D4
:1058D000C00149784018401EDF490A5CDD490020BC
:1058E0000856401E0190C017410F01980818C010BB
:1058F000C1000198411A012088400243D548002187
:105900004156491EC8170091410F00980818C01051
:10591000C001D04949784018401ECF490A54CD48AB
:1059200000214156C8170191410F01980818C01075
:10593000C1000198411A0120884002E046E2A6E039
:1059400043E20399491EC44A515C0843C2B203981A
:10595000401EC1490A54BF484078802801D1002028
:1059600002E0BC4901200856BA4948700020085698
:105970000090C017410F00980818C010C101B54A27
:10598000012010560818B449095C104600228256BE
:10599000D0170192420F01981018C010C200019850
:1059A000821A012090400143AA4800228256D01753
:1059B0000092420F00981018C010C001A54A0123A0
:1059C000D356C018A44A1154A24900200856401CBE
:1059D0000090C017420F00981018C010C00101229B
:1059E0008A5680189C490A5C9A4900200856401C37
:1059F0000190C017410F01980818C010C10001980C
:105A0000411A012088400243924800214156491C16
:105A1000C8170091410F00980818C010C0018D49A7
:105A20000123CB56C0188C490A548A4900200856D5
:105A3000401E0090C017420F00981018C010C001FF
:105A400001228A56801884490A5C8249002008563F
:105A5000401E0190C017410F01980818C010C100E6
:105A60000198411A0120884002437A48002141569A
:105A7000491EC8170091410F00980818C010C001B6
:105A800074490123CB56C01873490A549DE17149EA
:105A900001200856401C00287AD10856401C00906E
:105AA000C017410F00980818C010C0016A490A5C6D
:105AB000684900200856401C0190C017430F019808
:105AC0001818C010C3000198C11A01208840024371
:105AD000604900200856401C0090C017430F0098F2
